{
    "_format": "hh-sol-artifact-1",
    "contractName": "Transactions",
    "sourceName": "contracts/Transactions.sol",
    "abi": [
        {
            "anonymous": false,
            "inputs": [
                {
                    "indexed": false,
                    "internalType": "address",
                    "name": "from",
                    "type": "address"
                },
                {
                    "indexed": false,
                    "internalType": "address",
                    "name": "receiver",
                    "type": "address"
                },
                {
                    "indexed": false,
                    "internalType": "uint256",
                    "name": "amount",
                    "type": "uint256"
                },
                {
                    "indexed": false,
                    "internalType": "uint256",
                    "name": "timestamp",
                    "type": "uint256"
                },
                {
                    "indexed": false,
                    "internalType": "string",
                    "name": "keyword",
                    "type": "string"
                }
            ],
            "name": "Transfer",
            "type": "event"
        },
        {
            "inputs": [
                {
                    "internalType": "address payable",
                    "name": "receiver",
                    "type": "address"
                },
                {
                    "internalType": "uint256",
                    "name": "amount",
                    "type": "uint256"
                },
                {
                    "internalType": "string",
                    "name": "message",
                    "type": "string"
                },
                {
                    "internalType": "string",
                    "name": "keyword",
                    "type": "string"
                }
            ],
            "name": "addToBlock",
            "outputs": [],
            "stateMutability": "nonpayable",
            "type": "function"
        },
        {
            "inputs": [],
            "name": "getAllTransactions",
            "outputs": [
                {
                    "components": [
                        {
                            "internalType": "address",
                            "name": "sender",
                            "type": "address"
                        },
                        {
                            "internalType": "address",
                            "name": "receiver",
                            "type": "address"
                        },
                        {
                            "internalType": "uint256",
                            "name": "amount",
                            "type": "uint256"
                        },
                        {
                            "internalType": "string",
                            "name": "message",
                            "type": "string"
                        },
                        {
                            "internalType": "uint256",
                            "name": "timestamp",
                            "type": "uint256"
                        },
                        {
                            "internalType": "string",
                            "name": "keyword",
                            "type": "string"
                        }
                    ],
                    "internalType": "struct Transactions.TransferStruct[]",
                    "name": "",
                    "type": "tuple[]"
                }
            ],
            "stateMutability": "view",
            "type": "function"
        },
        {
            "inputs": [],
            "name": "getTransactionCount",
            "outputs": [
                {
                    "internalType": "uint256",
                    "name": "",
                    "type": "uint256"
                }
            ],
            "stateMutability": "view",
            "type": "function"
        }
    ],
    "bytecode": "0x608060405234801561001057600080fd5b50610bf6806100206000396000f3fe608060405234801561001057600080fd5b50600436106100415760003560e01c806327506f53146100465780632e7700f014610064578063357bb2a814610082575b600080fd5b61004e61009e565b60405161005b91906108a2565b60405180910390f35b61006c6102e1565b60405161007991906108c4565b60405180910390f35b61009c600480360381019061009791906105df565b6102ea565b005b60606001805480602002602001604051908101604052809291908181526020016000905b828210156102d857838290600052602060002090600602016040518060c00160405290816000820160009054906101000a900473ffffffffffffffffffffffffffffffffffffffff1673ffffffffffffffffffffffffffffffffffffffff1673ffffffffffffffffffffffffffffffffffffffff1681526020016001820160009054906101000a900473ffffffffffffffffffffffffffffffffffffffff1673ffffffffffffffffffffffffffffffffffffffff1673ffffffffffffffffffffffffffffffffffffffff168152602001600282015481526020016003820180546101ab90610ac2565b80601f01602080910402602001604051908101604052809291908181526020018280546101d790610ac2565b80156102245780601f106101f957610100808354040283529160200191610224565b820191906000526020600020905b81548152906001019060200180831161020757829003601f168201915b505050505081526020016004820154815260200160058201805461024790610ac2565b80601f016020809104026020016040519081016040528092919081815260200182805461027390610ac2565b80156102c05780601f10610295576101008083540402835291602001916102c0565b820191906000526020600020905b8154815290600101906020018083116102a357829003601f168201915b505050505081525050815260200190600101906100c2565b50505050905090565b60008054905090565b60016000808282546102fc91906109a6565b9250508190555060016040518060c001604052803373ffffffffffffffffffffffffffffffffffffffff1681526020018673ffffffffffffffffffffffffffffffffffffffff16815260200185815260200184815260200142815260200183815250908060018154018082558091505060019003906000526020600020906006020160009091909190915060008201518160000160006101000a81548173ffffffffffffffffffffffffffffffffffffffff021916908373ffffffffffffffffffffffffffffffffffffffff16021790555060208201518160010160006101000a81548173ffffffffffffffffffffffffffffffffffffffff021916908373ffffffffffffffffffffffffffffffffffffffff16021790555060408201518160020155606082015181600301908051906020019061043b9291906104aa565b506080820151816004015560a08201518160050190805190602001906104629291906104aa565b5050507f6f61ee1206c525dcbefe79039d2f7b768c9ad70030c51ae6623cd74492e8a6d3338585428560405161049c959493929190610848565b60405180910390a150505050565b8280546104b690610ac2565b90600052602060002090601f0160209004810192826104d8576000855561051f565b82601f106104f157805160ff191683800117855561051f565b8280016001018555821561051f579182015b8281111561051e578251825591602001919060010190610503565b5b50905061052c9190610530565b5090565b5b80821115610549576000816000905550600101610531565b5090565b600061056061055b84610910565b6108df565b90508281526020810184848401111561057857600080fd5b610583848285610a80565b509392505050565b60008135905061059a81610b92565b92915050565b600082601f8301126105b157600080fd5b81356105c184826020860161054d565b91505092915050565b6000813590506105d981610ba9565b92915050565b600080600080608085870312156105f557600080fd5b60006106038782880161058b565b9450506020610614878288016105ca565b935050604085013567ffffffffffffffff81111561063157600080fd5b61063d878288016105a0565b925050606085013567ffffffffffffffff81111561065a57600080fd5b610666878288016105a0565b91505092959194509250565b600061067e838361079a565b905092915050565b61068f81610a4a565b82525050565b61069e816109fc565b82525050565b6106ad816109fc565b82525050565b60006106be82610950565b6106c88185610973565b9350836020820285016106da85610940565b8060005b8581101561071657848403895281516106f78582610672565b945061070283610966565b925060208a019950506001810190506106de565b50829750879550505050505092915050565b60006107338261095b565b61073d8185610984565b935061074d818560208601610a8f565b61075681610b81565b840191505092915050565b600061076c8261095b565b6107768185610995565b9350610786818560208601610a8f565b61078f81610b81565b840191505092915050565b600060c0830160008301516107b26000860182610695565b5060208301516107c56020860182610695565b5060408301516107d8604086018261082a565b50606083015184820360608601526107f08282610728565b9150506080830151610805608086018261082a565b5060a083015184820360a086015261081d8282610728565b9150508091505092915050565b61083381610a40565b82525050565b61084281610a40565b82525050565b600060a08201905061085d60008301886106a4565b61086a6020830187610686565b6108776040830186610839565b6108846060830185610839565b81810360808301526108968184610761565b90509695505050505050565b600060208201905081810360008301526108bc81846106b3565b905092915050565b60006020820190506108d96000830184610839565b92915050565b6000604051905081810181811067ffffffffffffffff8211171561090657610905610b52565b5b8060405250919050565b600067ffffffffffffffff82111561092b5761092a610b52565b5b601f19601f8301169050602081019050919050565b6000819050602082019050919050565b600081519050919050565b600081519050919050565b6000602082019050919050565b600082825260208201905092915050565b600082825260208201905092915050565b600082825260208201905092915050565b60006109b182610a40565b91506109bc83610a40565b9250827fffffffffffffffffffffffffffffffffffffffffffffffffffffffffffffffff038211156109f1576109f0610af4565b5b828201905092915050565b6000610a0782610a20565b9050919050565b6000610a1982610a20565b9050919050565b600073ffffffffffffffffffffffffffffffffffffffff82169050919050565b6000819050919050565b6000610a5582610a5c565b9050919050565b6000610a6782610a6e565b9050919050565b6000610a7982610a20565b9050919050565b82818337600083830152505050565b60005b83811015610aad578082015181840152602081019050610a92565b83811115610abc576000848401525b50505050565b60006002820490506001821680610ada57607f821691505b60208210811415610aee57610aed610b23565b5b50919050565b7f4e487b7100000000000000000000000000000000000000000000000000000000600052601160045260246000fd5b7f4e487b7100000000000000000000000000000000000000000000000000000000600052602260045260246000fd5b7f4e487b7100000000000000000000000000000000000000000000000000000000600052604160045260246000fd5b6000601f19601f8301169050919050565b610b9b81610a0e565b8114610ba657600080fd5b50565b610bb281610a40565b8114610bbd57600080fd5b5056fea2646970667358221220ee1a4aac6e24ee63f372b66630ec92e9073ae456603cb03358c96927ba79b62564736f6c63430008000033",
    "linkReferences": {},
    "deployedLinkReferences": {}
}